:100000000C942A000C9447000C9447000C94470071
:100010000C9447000C9447000C9447000C94470044
:100020000C9447000C9447000C9447000C94470034
:100030000C9447000C9447000C9447000C94470024
:100040000C9447000C9447000C9447000C94470014
:100050000C94470011241FBECFE5D8E0DEBFCDBF12
:1000600011E0A0E6B0E0E4EEFFE002C005900D92E2
:10007000A036B107D9F721E0A0E6B1E001C01D929A
:10008000A536B207E1F70E94AB040C94F0070C947C
:10009000000098B39F70282F207F922B98BB98B3B5
:1000A0009E7F98BB98B3926098BB32E03A95F1F787
:1000B00000C098B39D7F98BBEFE8F1E03197F1F76E
:1000C00000C0000028B3F0E18F9FC0011124922FDF
:1000D0009F70892B88BB88B3826088BB32E03A95D9
:1000E000F1F700C088B38D7F88BB8FE99FE001974F
:1000F000F1F700C00000089598B39F70282F207F6B
:10010000922B98BB98B3916098BB98B3926098BBC0
:1001100032E03A95F1F700C098B39D7F98BBEFE8C5
:10012000F1E03197F1F700C0000028B3F0E18F9FB4
:10013000C0011124922F9F70892B88BB88B38260E5
:1001400088BB32E03A95F1F700C088B38D7F88BB59
:100150008FE99FE00197F1F700C0000008958FEF4D
:1001600087BB8FE39CE90197F1F700C0000083E3B0
:100170000E94490082E30E94490088E20E944900EF
:100180008CE00E94490086E00E94490081E00E94C4
:1001900049008FE99FE00197F1F700C0000080E877
:1001A0000E94490008950F931F93CF93DF938C0112
:1001B000C0E0D0E003C00E947C002196F801EC0F63
:1001C000FD1F80818111F7CFDF91CF911F910F919A
:1001D000089581E00E9449008FE99FE00197F1F7BF
:1001E00000C0000080E80E944900089580EF84BBB1
:1001F0008FEF85BB85B38F7085BB000083B38F7095
:10020000809363018F30B1F78FE39CE90197F1F799
:1002100000C0000083B38F70809363018F30A1F31F
:100220008FEE85BB000083B38F70809363018F30A6
:1002300019F01092640127C08FED85BB000083B3D5
:100240008F70809363018F3021F081E0809364018F
:100250001AC08FEB85BB000083B38F70809363015E
:100260008F3021F082E0809364010DC08FE785BB61
:10027000000083B38F70809363018F3009F4B6CF91
:1002800083E080936401809163018E3071F48091EA
:10029000640190E0FC01EE0FFF1F8E0F9F1FFC0119
:1002A000E05AFF4F8081805308958D3071F4809122
:1002B000640190E0FC01EE0FFF1F8E0F9F1FFC01F9
:1002C000E05AFF4F8181805308958B3071F4809103
:1002D000640190E0FC01EE0FFF1F8E0F9F1FFC01D9
:1002E000E05AFF4F8281805308958091640190E02D
:1002F0000196FC01EE0FFF1F8E0F9F1FFC01E05ABD
:10030000FF4F8081805308951ABA87E886B980E448
:1003100087B9089597B18F70982B97B986B180648B
:1003200086B9349BFECF8AE18A95F1F700C024B1EB
:1003300085B190E0982F8827820F911D08952AB1EA
:1003400028612AB920B5266820BDDC01CB01880FC1
:10035000991FAA1FBB1F880F991FAA1FBB1F9C01B3
:10036000AD01220F331F441F551F220F331F441F9F
:10037000551F60E072E18AE790E00E9490078FEFDE
:10038000820F89B9DA01C9010197A109B109892F41
:100390009A2FAB2FBB2780BD08955F9BFECF8CB1FA
:1003A00008959AB321E030E002C0220F331F8A95EE
:1003B000E2F7292B2ABB08954BB321E030E0B901C5
:1003C00002C0660F771F8A95E2F7CB01462B4BBB25
:1003D00078E27A95F1F79BB3809589238BBB0895DA
:1003E00040E050E0BA010EC029B330E0082E02C050
:1003F000359527950A94E2F720FD0BC04F5F5F4FBC
:100400006F4F7F4F403C27E2520729E0620771059A
:1004100058F3403C574269407105C1F11FBC92E05E
:100420009EBD1DBC1CBC40E050E0BA0113C029B306
:1004300030E0082E02C0359527950A94E2F720FF98
:1004400010C02CB53DB521363A4E58F44F5F5F4F82
:100450006F4F7F4F403C27E2520729E0620771054A
:1004600030F3403C57426940710599F08CB59DB519
:10047000A0E0B0E01EBC81362AEE9207A105B105CE
:1004800058F4B695A7959795879508958FEF9FEFA8
:1004900008958EEF9FEF08958EEF9FEF08950F93CD
:1004A0001F93CF93DF93C82FD62F8A010E94D101CB
:1004B0008C2F0E94DC018D2F0E94F001BC0180E096
:1004C00090E00E94950626E933E44BE05DE30E944C
:1004D000230720E030E040E05FE30E9423070E9412
:1004E0005F06601771071CF481E090E002C080E0B5
:1004F00090E0DF91CF911F910F910895CF92DF92FD
:10050000EF92FF92109262011092610110926001CD
:1005100080E033C09BB391609BBB9AE19A95F1F761
:1005200000C0C99B11C047E050E0481B510921E0C1
:1005300030E002C0220F331F4A95E2F7909162012A
:10054000292B2093620111C047E050E0481B51095C
:1005500021E030E002C0220F331F4A95E2F72095D8
:10056000909162012923209362019BB39E7F9BBBE4
:100570009DE09A95F1F700008F5F883058F280E097
:100580003EC09BB391609BBB9AE19A95F1F700C086
:10059000C99B16C04FE050E0481B510921E030E0F4
:1005A00002C0220F331F4A95E2F74091600150913B
:1005B0006101242B352B309361012093600117C01A
:1005C0004FE050E0481B510921E030E002C0220F0B
:1005D000331F4A95E2F72095309540916001509184
:1005E00061012423352330936101209360019BB383
:1005F0009E7F9BBB9DE09A95F1F700008F5F803155
:1006000008F4BFCF80916001909161019695879524
:1006100090936101809360016091620160FF05C069
:100620009068909361018093600166956093620188
:1006300070E080E090E00E94970624E632EA48E607
:1006400050E40E9423076B017C016091600170916E
:10065000610180E090E00E94950623E33BED4CE8C9
:1006600056E40E94ED059B01AC01C701B6010E9452
:100670008105FF90EF90DF90CF90089589E683BFCA
:1006800087B3886087BB089580E282BB82BBEFECB2
:10069000F7E03197F1F700C0000012BAFFEF23ED49
:1006A00030E3F15020403040E1F700C0000082BB51
:1006B00087EB9BE00197F1F700C0000012BA9FEFB3
:1006C000E3EDF0E39150E040F040E1F700C00000BE
:1006D000089580E282BB82BB8FEC97E00197F1F72F
:1006E00000C0000012BA9FEF23ED80E3915020403C
:1006F0008040E1F700C00000089580E182BB82BB2A
:10070000EFECF7E03197F1F700C0000012BAFFEF0D
:1007100023ED30E3F15020403040E1F700C000000D
:1007200082BB87EB9BE00197F1F700C0000012BA93
:100730009FEFE3EDF0E39150E040F040E1F700C0BF
:100740000000089580E182BB82BB8FEC97E00197A7
:10075000F1F700C0000012BA9FEF23ED80E3915043
:1007600020408040E1F700C000000895EF92FF9222
:100770000F931F93CF93DF93CDB7DEB764970FB678
:10078000F894DEBF0FBECDBF8C010E94E9008CE65D
:1007900090E00E94D3002FEF30E742E0215030403C
:1007A0004040E1F700C000004AE050E065E083E02F
:1007B0000E944F02019709F0BBC00E94E9008BE73D
:1007C00090E00E94D3008FEF99E628E1815090409D
:1007D0002040E1F700C000000E94F600823009F0DE
:1007E000ADC00E94E90089E890E00E94D3003FEF8D
:1007F00049E688E1315040408040E1F700C0000008
:100800000E94E9000E944403E12CF12C2BC08AB322
:1008100081608ABB8BB38E7F8BBB0E947E020E945D
:100820005F06DC01CB017C012FEF30E742E0215075
:1008300030404040E1F700C000004AE0BE016F5F79
:100840007F4F0E94BB07CE0101960E94D3008FEF1D
:1008500099E628E1815090402040E1F700C0000077
:100860000E94E9000E151F0594F683E990E00E94AE
:10087000D3000E9469038FE19EE40197F1F700C065
:1008800000000E947D038FE39CE90197F1F700C00F
:1008900000000E94A2030E94E90082EA90E00E9408
:1008A000D30082B3806482BB8FE097E20197F1F7B7
:1008B00000C0000012BA9FEF21E13AE791502040BA
:1008C0003040E1F700C000000E94E9008EEA90E0AD
:1008D0000E94D30082B3806882BB8FE19EE40197BF
:1008E000F1F700C0000012BA9FEF2CE231E341E0C3
:1008F0009150204030404040D9F700C000000E9495
:10090000E9008BEB90E00E94D30080EC0E9449004C
:1009100086EC90E00E94D3008FEF93E224EF8150A9
:1009200090402040E1F700C000000E94E90006C0AE
:100930000E94E9008CEC90E00E94D30064960FB610
:10094000F894DEBF0FBECDBFDF91CF911F910F9105
:10095000FF90EF900895CF93DF93CDB7DEB72C973C
:100960000FB6F894DEBF0FBECDBF84EF81BB0E94EF
:10097000AF002FE788E391E0215080409040E1F7FD
:1009800000C000000E9484010E943E0360E875E2FE
:1009900080E090E00E949F018FE290E39A83898338
:1009A0001C821B82FE01359688E0DF011D928A952C
:1009B000E9F734978FE0DF011D928A95E9F70E94ED
:1009C000E90087ED90E00E94D30080EC0E9449008E
:1009D0008FED90E00E94D300BFEF23ED80E3B15094
:1009E00020408040E1F700C000004CE050E067E0AC
:1009F00086E00E944F02019739F00E94E9008BEED9
:100A000090E00E94D300FFCF0E94E90018C08AEF57
:100A100090E00E94D30080EC0E94490087E091E0C2
:100A20000E94D3009FEFA3EDB0E39150A040B040EF
:100A3000E1F700C000000E94E90084E082BB82E090
:100A40000E948A018438910514F312BA0E94F600BC
:100A5000813059F60E94E90082E191E00E94D300C2
:100A600000E010E00BC00E94CD01E1E0F0E0EC0FEF
:100A7000FD1FE00FF11F80830F5F1F4F0C3011052A
:100A800094F30E94E90060E271E0CE0101960E94B9
:100A9000B207892BF1F48DE291E00E94D30080EC43
:100AA0000E9449008DE391E00E94D3000E94F6006D
:100AB00090E08330910529F482E390E00E94B60330
:100AC00094CF049709F091CF80E590E00E94B6039F
:100AD0008CCF0E94E9008EE491E00E94D30080EC6C
:100AE0000E9449008BE591E00E94D3002FEF8DE337
:100AF00099E4215080409040E1F700C0000075CF9C
:100B00005058BB27AA270E9498050C94E9060E941A
:100B1000DB0638F00E94E20620F039F49F3F19F41A
:100B200026F40C94D8060EF4E095E7FB0C94D2065C
:100B3000E92F0E94FA0658F3BA1762077307840771
:100B4000950720F079F4A6F50C941C070EF4E095B7
:100B50000B2EBA2FA02D0B01B90190010C01CA0177
:100B6000A0011124FF27591B99F0593F50F4503E22
:100B700068F11A16F040A22F232F342F4427585F14
:100B8000F3CF469537952795A795F0405395C9F72C
:100B90007EF41F16BA0B620B730B840BBAF09150E4
:100BA000A1F0FF0FBB1F661F771F881FC2F70EC083
:100BB000BA0F621F731F841F48F487957795679556
:100BC000B795F7959E3F08F0B0CF9395880F08F042
:100BD0009927EE0F9795879508950E9401060C942A
:100BE000E9060E94E20658F00E94DB0640F029F474
:100BF0005F3F29F00C94D20651110C941D070C9400
:100C0000D8060E94FA0668F39923B1F3552391F3AD
:100C1000951B550BBB27AA2762177307840738F06B
:100C20009F5F5F4F220F331F441FAA1FA9F335D0C8
:100C30000E2E3AF0E0E832D091505040E695001C7C
:100C4000CAF72BD0FE2F29D0660F771F881FBB1F36
:100C5000261737074807AB07B0E809F0BB0B802D14
:100C6000BF01FF2793585F4F3AF09E3F510578F040
:100C70000C94D2060C941D075F3FE4F3983ED4F326
:100C8000869577956795B795F7959F5FC9F7880F14
:100C9000911D9695879597F90895E1E0660F771F66
:100CA000881FBB1F621773078407BA0720F0621BF7
:100CB000730B840BBA0BEE1F88F7E09508950E9422
:100CC00066066894B1110C941D0708950E940207EE
:100CD00088F09F5798F0B92F9927B751B0F0E1F0FD
:100CE000660F771F881F991F1AF0BA95C9F714C0AD
:100CF000B13091F00E941C07B1E008950C941C07DC
:100D0000672F782F8827B85F39F0B93FCCF38695E5
:100D100077956795B395D9F73EF490958095709542
:100D200061957F4F8F4F9F4F0895E89409C097FBBF
:100D30003EF490958095709561957F4F8F4F9F4FB2
:100D40009923A9F0F92F96E9BB279395F6958795F6
:100D500077956795B795F111F8CFFAF4BB0F11F4B9
:100D600060FF1BC06F5F7F4F8F4F9F4F16C0882360
:100D700011F096E911C0772321F09EE8872F762F96
:100D800005C0662371F096E8862F70E060E02AF0D7
:100D90009A95660F771F881FDAF7880F96958795C3
:100DA00097F9089597F99F6780E870E060E00895EB
:100DB0009FEF80EC089500240A9416161706180673
:100DC0000906089500240A9412161306140605064F
:100DD0000895092E0394000C11F4882352F0BB0FE0
:100DE00040F4BF2B11F460FF04C06F5F7F4F8F4F43
:100DF0009F4F089557FD9058440F551F59F05F3F7E
:100E000071F04795880F97FB991F61F09F3F79F02C
:100E100087950895121613061406551FF2CF4695AE
:100E2000F1DF08C0161617061806991FF1CF869530
:100E30007105610508940895E894BB276627772714
:100E4000CB0197F908950E9436070C94E9060E9499
:100E5000DB0638F00E94E20620F0952311F00C9496
:100E6000D2060C94D80611240C941D070E94FA0691
:100E700070F3959FC1F3950F50E0551F629FF001ED
:100E8000729FBB27F00DB11D639FAA27F00DB11D06
:100E9000AA1F649F6627B00DA11D661F829F22278F
:100EA000B00DA11D621F739FB00DA11D621F839F16
:100EB000A00D611D221F749F3327A00D611D231FEC
:100EC000849F600D211D822F762F6A2F11249F573A
:100ED00050409AF0F1F088234AF0EE0FFF1FBB1F3D
:100EE000661F771F881F91505040A9F79E3F5105FC
:100EF00080F00C94D2060C941D075F3FE4F3983EFB
:100F0000D4F3869577956795B795F795E7959F5FA5
:100F1000C1F7FE2B880F911D9695879597F9089537
:100F2000A1E21A2EAA1BBB1BFD010DC0AA1FBB1FED
:100F3000EE1FFF1FA217B307E407F50720F0A21B5F
:100F4000B30BE40BF50B661F771F881F991F1A94CC
:100F500069F760957095809590959B01AC01BD01F6
:100F6000CF010895FB01DC018D91019080190110E2
:100F7000D9F3990B0895BB274A3031F4992322F411
:100F8000BDE2909581959F4F0C94C707BB27FB014D
:100F90005527AA27880F991FAA1FA41710F0A41B72
:100FA00083955051B9F7A05DAA3308F0A95DA193CC
:100FB000009779F7B111B1931192CB010C94E0072E
:100FC000DC01FC01672F71917723E1F7329704C0B0
:100FD0007C916D9370836291AE17BF07C8F308953B
:040FE000F894FFCFB3
:100FE4003132333435363738392A3023506C616323
:100FF400652074686520426F776C00507265737366
:1010040020636F6F6B2832290050726570617269BA
:101014006E67004C696D6974206578636565646505
:1010240064004D6F76696E672042656C7400466C8F
:101034006F77696E67204D696C6B00436F726E66E3
:101044006C616B657300526561647900506C616317
:101054006520426F776C0057656C636F6D65005057
:1010640072657373205374617274004C6F77206DD2
:10107400696C6B206C6576656C004D696C6B2048FF
:10108400656174696E6700696E2050726F63657381
:10109400730053686F772052464944207461670097
:1010A4003132333435363738393031320053656CA8
:1010B400656374205468652053697A6500333A2067
:1010C400536D616C6C20343A4C6172676500556EE7
:1010D400726567697374657265640055736572003F
:00000001FF
